{
  "contractName": "BloodReportContract",
  "abi": [
    {
      "constant": true,
      "inputs": [],
      "name": "nextId",
      "outputs": [
        {
          "name": "",
          "type": "uint256"
        }
      ],
      "payable": false,
      "stateMutability": "view",
      "type": "function"
    },
    {
      "constant": true,
      "inputs": [
        {
          "name": "",
          "type": "uint256"
        }
      ],
      "name": "reports",
      "outputs": [
        {
          "components": [
            {
              "name": "name",
              "type": "string"
            },
            {
              "name": "age",
              "type": "uint256"
            },
            {
              "name": "gender",
              "type": "string"
            },
            {
              "name": "bloodGroup",
              "type": "string"
            }
          ],
          "name": "personalInfo",
          "type": "tuple"
        },
        {
          "components": [
            {
              "name": "haemoglobin",
              "type": "string"
            },
            {
              "name": "platelet",
              "type": "string"
            },
            {
              "name": "WBC",
              "type": "string"
            },
            {
              "name": "RBC",
              "type": "string"
            }
          ],
          "name": "bloodTest",
          "type": "tuple"
        }
      ],
      "payable": false,
      "stateMutability": "view",
      "type": "function"
    },
    {
      "constant": false,
      "inputs": [
        {
          "name": "_name",
          "type": "string"
        },
        {
          "name": "_age",
          "type": "uint256"
        },
        {
          "name": "_gender",
          "type": "string"
        },
        {
          "name": "_bloodGroup",
          "type": "string"
        },
        {
          "name": "_haemoglobin",
          "type": "string"
        },
        {
          "name": "_platelet",
          "type": "string"
        },
        {
          "name": "_WBC",
          "type": "string"
        },
        {
          "name": "_RBC",
          "type": "string"
        }
      ],
      "name": "createReport",
      "outputs": [],
      "payable": false,
      "stateMutability": "nonpayable",
      "type": "function"
    },
    {
      "constant": true,
      "inputs": [],
      "name": "getNextId",
      "outputs": [
        {
          "name": "",
          "type": "uint256"
        }
      ],
      "payable": false,
      "stateMutability": "view",
      "type": "function"
    }
  ],
  "bytecode": "0x608060405234801561001057600080fd5b50610c6c806100206000396000f3fe60806040526004361061005c576000357c0100000000000000000000000000000000000000000000000000000000900480632d7e77f41461006157806361b8ce8c1461008a578063bc968326146100b5578063c942adf7146100e0575b600080fd5b34801561006d57600080fd5b5061008860048036036100839190810190610864565b61011e565b005b34801561009657600080fd5b5061009f610293565b6040516100ac9190610b4c565b60405180910390f35b3480156100c157600080fd5b506100ca610299565b6040516100d79190610b4c565b60405180910390f35b3480156100ec57600080fd5b50610107600480360361010291908101906109be565b6102a3565b604051610115929190610b15565b60405180910390f35b60408051908101604052806080604051908101604052808b81526020018a815260200189815260200188815250815260200160806040519081016040528087815260200186815260200185815260200184815250815250600080600154815260200190815260200160002060008201518160000160008201518160000190805190602001906101ae929190610755565b506020820151816001015560408201518160020190805190602001906101d5929190610755565b5060608201518160030190805190602001906101f2929190610755565b505050602082015181600401600082015181600001908051906020019061021a929190610755565b506020820151816001019080519060200190610237929190610755565b506040820151816002019080519060200190610254929190610755565b506060820151816003019080519060200190610271929190610755565b5050509050506001600081548092919060010191905055505050505050505050565b60015481565b6000600154905090565b60006020528060005260406000206000915090508060000160806040519081016040529081600082018054600181600116156101000203166002900480601f0160208091040260200160405190810160405280929190818152602001828054600181600116156101000203166002900480156103605780601f1061033557610100808354040283529160200191610360565b820191906000526020600020905b81548152906001019060200180831161034357829003601f168201915b5050505050815260200160018201548152602001600282018054600181600116156101000203166002900480601f01602080910402602001604051908101604052809291908181526020018280546001816001161561010002031660029004801561040c5780601f106103e15761010080835404028352916020019161040c565b820191906000526020600020905b8154815290600101906020018083116103ef57829003601f168201915b50505050508152602001600382018054600181600116156101000203166002900480601f0160208091040260200160405190810160405280929190818152602001828054600181600116156101000203166002900480156104ae5780601f10610483576101008083540402835291602001916104ae565b820191906000526020600020905b81548152906001019060200180831161049157829003601f168201915b505050505081525050908060040160806040519081016040529081600082018054600181600116156101000203166002900480601f0160208091040260200160405190810160405280929190818152602001828054600181600116156101000203166002900480156105615780601f1061053657610100808354040283529160200191610561565b820191906000526020600020905b81548152906001019060200180831161054457829003601f168201915b50505050508152602001600182018054600181600116156101000203166002900480601f0160208091040260200160405190810160405280929190818152602001828054600181600116156101000203166002900480156106035780601f106105d857610100808354040283529160200191610603565b820191906000526020600020905b8154815290600101906020018083116105e657829003601f168201915b50505050508152602001600282018054600181600116156101000203166002900480601f0160208091040260200160405190810160405280929190818152602001828054600181600116156101000203166002900480156106a55780601f1061067a576101008083540402835291602001916106a5565b820191906000526020600020905b81548152906001019060200180831161068857829003601f168201915b50505050508152602001600382018054600181600116156101000203166002900480601f0160208091040260200160405190810160405280929190818152602001828054600181600116156101000203166002900480156107475780601f1061071c57610100808354040283529160200191610747565b820191906000526020600020905b81548152906001019060200180831161072a57829003601f168201915b505050505081525050905082565b828054600181600116156101000203166002900490600052602060002090601f016020900481019282601f1061079657805160ff19168380011785556107c4565b828001600101855582156107c4579182015b828111156107c35782518255916020019190600101906107a8565b5b5090506107d191906107d5565b5090565b6107f791905b808211156107f35760008160009055506001016107db565b5090565b90565b600082601f830112151561080d57600080fd5b813561082061081b82610b94565b610b67565b9150808252602083016020830185838301111561083c57600080fd5b610847838284610bdf565b50505092915050565b600061085c8235610bd5565b905092915050565b600080600080600080600080610100898b03121561088157600080fd5b600089013567ffffffffffffffff81111561089b57600080fd5b6108a78b828c016107fa565b98505060206108b88b828c01610850565b975050604089013567ffffffffffffffff8111156108d557600080fd5b6108e18b828c016107fa565b965050606089013567ffffffffffffffff8111156108fe57600080fd5b61090a8b828c016107fa565b955050608089013567ffffffffffffffff81111561092757600080fd5b6109338b828c016107fa565b94505060a089013567ffffffffffffffff81111561095057600080fd5b61095c8b828c016107fa565b93505060c089013567ffffffffffffffff81111561097957600080fd5b6109858b828c016107fa565b92505060e089013567ffffffffffffffff8111156109a257600080fd5b6109ae8b828c016107fa565b9150509295985092959890939650565b6000602082840312156109d057600080fd5b60006109de84828501610850565b91505092915050565b60006109f282610bc0565b808452610a06816020860160208601610bee565b610a0f81610c21565b602085010191505092915050565b60006080830160008301518482036000860152610a3a82826109e7565b91505060208301518482036020860152610a5482826109e7565b91505060408301518482036040860152610a6e82826109e7565b91505060608301518482036060860152610a8882826109e7565b9150508091505092915050565b60006080830160008301518482036000860152610ab282826109e7565b9150506020830151610ac76020860182610b06565b5060408301518482036040860152610adf82826109e7565b91505060608301518482036060860152610af982826109e7565b9150508091505092915050565b610b0f81610bcb565b82525050565b60006040820190508181036000830152610b2f8185610a95565b90508181036020830152610b438184610a1d565b90509392505050565b6000602082019050610b616000830184610b06565b92915050565b6000604051905081810181811067ffffffffffffffff82111715610b8a57600080fd5b8060405250919050565b600067ffffffffffffffff821115610bab57600080fd5b601f19601f8301169050602081019050919050565b600081519050919050565b6000819050919050565b6000819050919050565b82818337600083830152505050565b60005b83811015610c0c578082015181840152602081019050610bf1565b83811115610c1b576000848401525b50505050565b6000601f19601f830116905091905056fea265627a7a72305820f127f71355f02ddebd5710f865bb7958aea630d1314bf091965a80058512dba66c6578706572696d656e74616cf50037",
  "source": "// SPDX-License-Identifier: MIT\r\npragma solidity >=0.4.22 <0.9.0;\r\n\r\npragma experimental ABIEncoderV2;\r\n\r\ncontract BloodReportContract {\r\n    struct PersonalInfo {\r\n        string name;\r\n        uint256 age;\r\n        string gender;\r\n        string bloodGroup;\r\n    }\r\n\r\n    struct BloodTest {\r\n        string haemoglobin;\r\n        string platelet;\r\n        string WBC;\r\n        string RBC;\r\n    }\r\n\r\n    struct BloodReport {\r\n        PersonalInfo personalInfo;\r\n        BloodTest bloodTest;\r\n    }\r\n\r\n    mapping(uint256 => BloodReport) public reports;\r\n    uint256 public nextId;\r\n\r\n    function createReport(\r\n        string memory _name,\r\n        uint256 _age,\r\n        string memory _gender,\r\n        string memory _bloodGroup,\r\n        string memory _haemoglobin,\r\n        string memory _platelet,\r\n        string memory _WBC,\r\n        string memory _RBC\r\n    ) public {\r\n        reports[nextId] = BloodReport(\r\n            PersonalInfo(_name, _age, _gender, _bloodGroup),\r\n            BloodTest(_haemoglobin, _platelet, _WBC, _RBC)\r\n        );\r\n        nextId++;\r\n    }\r\n\r\n    function getNextId() public view returns (uint256) {\r\n        return nextId;\r\n    }\r\n}",
  "sourcePath": "D:\\ehmrs2\\contracts\\BloodReportContract.sol",
  "compiler": {
    "name": "solc",
    "version": "0.5.1+commit.c8a2cb62.Emscripten.clang"
  },
  "schemaVersion": "3.4.16",
  "updatedAt": "2024-04-26T21:08:08.709Z",
  "networkType": "ethereum",
  "devdoc": {
    "methods": {}
  },
  "userdoc": {
    "methods": {}
  }
}