{
  "contractName": "CardiologyContract",
  "abi": [
    {
      "constant": true,
      "inputs": [
        {
          "name": "",
          "type": "uint256"
        }
      ],
      "name": "patients",
      "outputs": [
        {
          "name": "id",
          "type": "uint256"
        },
        {
          "name": "name",
          "type": "string"
        },
        {
          "name": "age",
          "type": "uint256"
        },
        {
          "name": "gender",
          "type": "string"
        },
        {
          "name": "heartRate",
          "type": "uint256"
        },
        {
          "name": "pDuration",
          "type": "uint256"
        },
        {
          "name": "prInterval",
          "type": "uint256"
        },
        {
          "name": "qrsDuration",
          "type": "uint256"
        },
        {
          "name": "qtInterval",
          "type": "uint256"
        },
        {
          "name": "qtcInterval",
          "type": "uint256"
        },
        {
          "name": "bloodPressure",
          "type": "string"
        },
        {
          "name": "pqrsTAxis",
          "type": "string"
        }
      ],
      "payable": false,
      "stateMutability": "view",
      "type": "function"
    },
    {
      "constant": false,
      "inputs": [
        {
          "name": "_name",
          "type": "string"
        },
        {
          "name": "_age",
          "type": "uint256"
        },
        {
          "name": "_gender",
          "type": "string"
        },
        {
          "name": "_heartRate",
          "type": "uint256"
        },
        {
          "name": "_pDuration",
          "type": "uint256"
        },
        {
          "name": "_prInterval",
          "type": "uint256"
        },
        {
          "name": "_qrsDuration",
          "type": "uint256"
        },
        {
          "name": "_qtInterval",
          "type": "uint256"
        },
        {
          "name": "_qtcInterval",
          "type": "uint256"
        },
        {
          "name": "_bloodPressure",
          "type": "string"
        },
        {
          "name": "_pqrsTAxis",
          "type": "string"
        }
      ],
      "name": "addPatient",
      "outputs": [],
      "payable": false,
      "stateMutability": "nonpayable",
      "type": "function"
    },
    {
      "constant": true,
      "inputs": [],
      "name": "getPatientCount",
      "outputs": [
        {
          "name": "",
          "type": "uint256"
        }
      ],
      "payable": false,
      "stateMutability": "view",
      "type": "function"
    },
    {
      "constant": true,
      "inputs": [
        {
          "name": "_index",
          "type": "uint256"
        }
      ],
      "name": "getPatient",
      "outputs": [
        {
          "name": "id",
          "type": "uint256"
        },
        {
          "name": "name",
          "type": "string"
        },
        {
          "name": "age",
          "type": "uint256"
        },
        {
          "name": "gender",
          "type": "string"
        },
        {
          "name": "heartRate",
          "type": "uint256"
        },
        {
          "name": "pDuration",
          "type": "uint256"
        },
        {
          "name": "prInterval",
          "type": "uint256"
        },
        {
          "name": "qrsDuration",
          "type": "uint256"
        },
        {
          "name": "qtInterval",
          "type": "uint256"
        },
        {
          "name": "qtcInterval",
          "type": "uint256"
        },
        {
          "name": "bloodPressure",
          "type": "string"
        },
        {
          "name": "pqrsTAxis",
          "type": "string"
        }
      ],
      "payable": false,
      "stateMutability": "view",
      "type": "function"
    }
  ],
  "bytecode": "0x608060405234801561001057600080fd5b50610e5e806100206000396000f3fe60806040526004361061005c576000357c0100000000000000000000000000000000000000000000000000000000900480637d3a67961461006157806393119a83146100a9578063a40e31c5146100f1578063c190665b1461011a575b600080fd5b34801561006d57600080fd5b5061008860048036036100839190810190610ae3565b610145565b6040516100a09c9b9a99989796959493929190610ba2565b60405180910390f35b3480156100b557600080fd5b506100d060048036036100cb9190810190610ae3565b610449565b6040516100e89c9b9a99989796959493929190610c78565b60405180910390f35b3480156100fd57600080fd5b5061011860048036036101139190810190610993565b610718565b005b34801561012657600080fd5b5061012f610878565b60405161013c9190610b87565b60405180910390f35b60006060600060606000806000806000806060806000808e81548110151561016957fe5b90600052602060002090600c020190508060000154816001018260020154836003018460040154856005015486600601548760070154886008015489600901548a600a018b600b018a8054600181600116156101000203166002900480601f0160208091040260200160405190810160405280929190818152602001828054600181600116156101000203166002900480156102465780601f1061021b57610100808354040283529160200191610246565b820191906000526020600020905b81548152906001019060200180831161022957829003601f168201915b50505050509a50888054600181600116156101000203166002900480601f0160208091040260200160405190810160405280929190818152602001828054600181600116156101000203166002900480156102e25780601f106102b7576101008083540402835291602001916102e2565b820191906000526020600020905b8154815290600101906020018083116102c557829003601f168201915b50505050509850818054600181600116156101000203166002900480601f01602080910402602001604051908101604052809291908181526020018280546001816001161561010002031660029004801561037e5780601f106103535761010080835404028352916020019161037e565b820191906000526020600020905b81548152906001019060200180831161036157829003601f168201915b50505050509150808054600181600116156101000203166002900480601f01602080910402602001604051908101604052809291908181526020018280546001816001161561010002031660029004801561041a5780601f106103ef5761010080835404028352916020019161041a565b820191906000526020600020905b8154815290600101906020018083116103fd57829003601f168201915b505050505090509c509c509c509c509c509c509c509c509c509c509c509c505091939597999b5091939597999b565b60008181548110151561045857fe5b90600052602060002090600c0201600091509050806000015490806001018054600181600116156101000203166002900480601f01602080910402602001604051908101604052809291908181526020018280546001816001161561010002031660029004801561050a5780601f106104df5761010080835404028352916020019161050a565b820191906000526020600020905b8154815290600101906020018083116104ed57829003601f168201915b505050505090806002015490806003018054600181600116156101000203166002900480601f0160208091040260200160405190810160405280929190818152602001828054600181600116156101000203166002900480156105ae5780601f10610583576101008083540402835291602001916105ae565b820191906000526020600020905b81548152906001019060200180831161059157829003601f168201915b50505050509080600401549080600501549080600601549080600701549080600801549080600901549080600a018054600181600116156101000203166002900480601f0160208091040260200160405190810160405280929190818152602001828054600181600116156101000203166002900480156106705780601f1061064557610100808354040283529160200191610670565b820191906000526020600020905b81548152906001019060200180831161065357829003601f168201915b50505050509080600b018054600181600116156101000203166002900480601f01602080910402602001604051908101604052809291908181526020018280546001816001161561010002031660029004801561070e5780601f106106e35761010080835404028352916020019161070e565b820191906000526020600020905b8154815290600101906020018083116106f157829003601f168201915b505050505090508c565b60006101806040519081016040528060016000805490500181526020018d81526020018c81526020018b81526020018a8152602001898152602001888152602001878152602001868152602001858152602001848152602001838152509080600181540180825580915050906001820390600052602060002090600c0201600090919290919091506000820151816000015560208201518160010190805190602001906107c6929190610884565b506040820151816002015560608201518160030190805190602001906107ed929190610884565b506080820151816004015560a0820151816005015560c0820151816006015560e082015181600701556101008201518160080155610120820151816009015561014082015181600a019080519060200190610849929190610884565b5061016082015181600b019080519060200190610867929190610884565b505050505050505050505050505050565b60008080549050905090565b828054600181600116156101000203166002900490600052602060002090601f016020900481019282601f106108c557805160ff19168380011785556108f3565b828001600101855582156108f3579182015b828111156108f25782518255916020019190600101906108d7565b5b5090506109009190610904565b5090565b61092691905b8082111561092257600081600090555060010161090a565b5090565b90565b600082601f830112151561093c57600080fd5b813561094f61094a82610d7b565b610d4e565b9150808252602083016020830185838301111561096b57600080fd5b610976838284610dd1565b50505092915050565b600061098b8235610dc7565b905092915050565b60008060008060008060008060008060006101608c8e0312156109b557600080fd5b60008c013567ffffffffffffffff8111156109cf57600080fd5b6109db8e828f01610929565b9b505060206109ec8e828f0161097f565b9a505060408c013567ffffffffffffffff811115610a0957600080fd5b610a158e828f01610929565b9950506060610a268e828f0161097f565b9850506080610a378e828f0161097f565b97505060a0610a488e828f0161097f565b96505060c0610a598e828f0161097f565b95505060e0610a6a8e828f0161097f565b945050610100610a7c8e828f0161097f565b9350506101208c013567ffffffffffffffff811115610a9a57600080fd5b610aa68e828f01610929565b9250506101408c013567ffffffffffffffff811115610ac457600080fd5b610ad08e828f01610929565b9150509295989b509295989b9093969950565b600060208284031215610af557600080fd5b6000610b038482850161097f565b91505092915050565b6000610b1782610db2565b808452610b2b816020860160208601610de0565b610b3481610e13565b602085010191505092915050565b6000610b4d82610da7565b808452610b61816020860160208601610de0565b610b6a81610e13565b602085010191505092915050565b610b8181610dbd565b82525050565b6000602082019050610b9c6000830184610b78565b92915050565b600061018082019050610bb8600083018f610b78565b8181036020830152610bca818e610b0c565b9050610bd9604083018d610b78565b8181036060830152610beb818c610b0c565b9050610bfa608083018b610b78565b610c0760a083018a610b78565b610c1460c0830189610b78565b610c2160e0830188610b78565b610c2f610100830187610b78565b610c3d610120830186610b78565b818103610140830152610c508185610b0c565b9050818103610160830152610c658184610b0c565b90509d9c50505050505050505050505050565b600061018082019050610c8e600083018f610b78565b8181036020830152610ca0818e610b42565b9050610caf604083018d610b78565b8181036060830152610cc1818c610b42565b9050610cd0608083018b610b78565b610cdd60a083018a610b78565b610cea60c0830189610b78565b610cf760e0830188610b78565b610d05610100830187610b78565b610d13610120830186610b78565b818103610140830152610d268185610b42565b9050818103610160830152610d3b8184610b42565b90509d9c50505050505050505050505050565b6000604051905081810181811067ffffffffffffffff82111715610d7157600080fd5b8060405250919050565b600067ffffffffffffffff821115610d9257600080fd5b601f19601f8301169050602081019050919050565b600081519050919050565b600081519050919050565b6000819050919050565b6000819050919050565b82818337600083830152505050565b60005b83811015610dfe578082015181840152602081019050610de3565b83811115610e0d576000848401525b50505050565b6000601f19601f830116905091905056fea265627a7a72305820e2f32c0836a2a3acdb53762b8494e358c62bfb5b291a7a4a8deb12ad629d3fdb6c6578706572696d656e74616cf50037",
  "source": "// SPDX-License-Identifier: MIT\r\npragma solidity >=0.4.22 <0.9.0;\r\n\r\npragma experimental ABIEncoderV2;\r\n\r\ncontract CardiologyContract {\r\n    struct Patient {\r\n        uint id;\r\n        string name;\r\n        uint age;\r\n        string gender;\r\n        uint heartRate;\r\n        uint pDuration;\r\n        uint prInterval;\r\n        uint qrsDuration;\r\n        uint qtInterval;\r\n        uint qtcInterval;\r\n        string bloodPressure;\r\n        string pqrsTAxis;\r\n    }\r\n\r\n    Patient[] public patients;\r\n\r\n    function addPatient(\r\n        string memory _name,\r\n        uint _age,\r\n        string memory _gender,\r\n        uint _heartRate,\r\n        uint _pDuration,\r\n        uint _prInterval,\r\n        uint _qrsDuration,\r\n        uint _qtInterval,\r\n        uint _qtcInterval,\r\n        string memory _bloodPressure,\r\n        string memory _pqrsTAxis\r\n    ) public {\r\n        patients.push(Patient({\r\n            id: patients.length + 1,\r\n            name: _name,\r\n            age: _age,\r\n            gender: _gender,\r\n            heartRate: _heartRate,\r\n            pDuration: _pDuration,\r\n            prInterval: _prInterval,\r\n            qrsDuration: _qrsDuration,\r\n            qtInterval: _qtInterval,\r\n            qtcInterval: _qtcInterval,\r\n            bloodPressure: _bloodPressure,\r\n            pqrsTAxis: _pqrsTAxis\r\n        }));\r\n    }\r\n\r\n    function getPatientCount() public view returns (uint) {\r\n        return patients.length;\r\n    }\r\n\r\n    function getPatient(uint _index) public view returns (\r\n        uint id,\r\n        string memory name,\r\n        uint age,\r\n        string memory gender,\r\n        uint heartRate,\r\n        uint pDuration,\r\n        uint prInterval,\r\n        uint qrsDuration,\r\n        uint qtInterval,\r\n        uint qtcInterval,\r\n        string memory bloodPressure,\r\n        string memory pqrsTAxis\r\n    ) {\r\n        Patient storage patient = patients[_index];\r\n        return (\r\n            patient.id,\r\n            patient.name,\r\n            patient.age,\r\n            patient.gender,\r\n            patient.heartRate,\r\n            patient.pDuration,\r\n            patient.prInterval,\r\n            patient.qrsDuration,\r\n            patient.qtInterval,\r\n            patient.qtcInterval,\r\n            patient.bloodPressure,\r\n            patient.pqrsTAxis\r\n        );\r\n    }\r\n}\r\n",
  "sourcePath": "D:\\ehmrs2\\contracts\\CardiologyContract.sol",
  "compiler": {
    "name": "solc",
    "version": "0.5.1+commit.c8a2cb62.Emscripten.clang"
  },
  "schemaVersion": "3.4.16",
  "updatedAt": "2024-04-26T21:08:07.557Z",
  "networkType": "ethereum",
  "devdoc": {
    "methods": {}
  },
  "userdoc": {
    "methods": {}
  }
}