{
  "contractName": "EyeReportContract",
  "abi": [
    {
      "constant": true,
      "inputs": [
        {
          "name": "",
          "type": "address"
        }
      ],
      "name": "eyeReports",
      "outputs": [
        {
          "name": "name",
          "type": "string"
        },
        {
          "name": "age",
          "type": "uint256"
        },
        {
          "name": "gender",
          "type": "string"
        }
      ],
      "payable": false,
      "stateMutability": "view",
      "type": "function"
    },
    {
      "constant": false,
      "inputs": [
        {
          "name": "_name",
          "type": "string"
        },
        {
          "name": "_age",
          "type": "uint256"
        },
        {
          "name": "_gender",
          "type": "string"
        },
        {
          "name": "_details",
          "type": "string[]"
        },
        {
          "name": "_prescription",
          "type": "string[]"
        }
      ],
      "name": "createReport",
      "outputs": [],
      "payable": false,
      "stateMutability": "nonpayable",
      "type": "function"
    }
  ],
  "bytecode": "0x608060405234801561001057600080fd5b506108d3806100206000396000f3fe608060405260043610610046576000357c010000000000000000000000000000000000000000000000000000000090048063086923301461004b578063bfada8471461008a575b600080fd5b34801561005757600080fd5b50610072600480360361006d91908101906105be565b6100b3565b60405161008193929190610703565b60405180910390f35b34801561009657600080fd5b506100b160048036036100ac91908101906105e7565b61020d565b005b6000602052806000526040600020600091509050806000018054600181600116156101000203166002900480601f01602080910402602001604051908101604052809291908181526020018280546001816001161561010002031660029004801561015f5780601f106101345761010080835404028352916020019161015f565b820191906000526020600020905b81548152906001019060200180831161014257829003601f168201915b505050505090806001015490806002018054600181600116156101000203166002900480601f0160208091040260200160405190810160405280929190818152602001828054600181600116156101000203166002900480156102035780601f106101d857610100808354040283529160200191610203565b820191906000526020600020905b8154815290600101906020018083116101e657829003601f168201915b5050505050905083565b60a060405190810160405280868152602001858152602001848152602001838152602001828152506000803373ffffffffffffffffffffffffffffffffffffffff1673ffffffffffffffffffffffffffffffffffffffff168152602001908152602001600020600082015181600001908051906020019061028f9291906102fb565b506020820151816001015560408201518160020190805190602001906102b69291906102fb565b5060608201518160030190805190602001906102d392919061037b565b5060808201518160040190805190602001906102f092919061037b565b509050505050505050565b828054600181600116156101000203166002900490600052602060002090601f016020900481019282601f1061033c57805160ff191683800117855561036a565b8280016001018555821561036a579182015b8281111561036957825182559160200191906001019061034e565b5b50905061037791906103db565b5090565b8280548282559060005260206000209081019282156103ca579160200282015b828111156103c95782518290805190602001906103b99291906102fb565b509160200191906001019061039b565b5b5090506103d79190610400565b5090565b6103fd91905b808211156103f95760008160009055506001016103e1565b5090565b90565b61042991905b80821115610425576000818161041c919061042c565b50600101610406565b5090565b90565b50805460018160011615610100020316600290046000825580601f106104525750610471565b601f01602090049060005260206000209081019061047091906103db565b5b50565b6000610480823561082a565b905092915050565b600082601f830112151561049b57600080fd5b81356104ae6104a982610775565b610748565b9150818183526020840193506020810190508360005b838110156104f457813586016104da88826104fe565b8452602084019350602083019250506001810190506104c4565b5050505092915050565b600082601f830112151561051157600080fd5b813561052461051f8261079d565b610748565b9150808252602083016020830185838301111561054057600080fd5b61054b838284610846565b50505092915050565b600082601f830112151561056757600080fd5b813561057a610575826107c9565b610748565b9150808252602083016020830185838301111561059657600080fd5b6105a1838284610846565b50505092915050565b60006105b6823561083c565b905092915050565b6000602082840312156105d057600080fd5b60006105de84828501610474565b91505092915050565b600080600080600060a086880312156105ff57600080fd5b600086013567ffffffffffffffff81111561061957600080fd5b61062588828901610554565b9550506020610636888289016105aa565b945050604086013567ffffffffffffffff81111561065357600080fd5b61065f88828901610554565b935050606086013567ffffffffffffffff81111561067c57600080fd5b61068888828901610488565b925050608086013567ffffffffffffffff8111156106a557600080fd5b6106b188828901610488565b9150509295509295909350565b60006106c9826107f5565b8084526106dd816020860160208601610855565b6106e681610888565b602085010191505092915050565b6106fd81610820565b82525050565b6000606082019050818103600083015261071d81866106be565b905061072c60208301856106f4565b818103604083015261073e81846106be565b9050949350505050565b6000604051905081810181811067ffffffffffffffff8211171561076b57600080fd5b8060405250919050565b600067ffffffffffffffff82111561078c57600080fd5b602082029050602081019050919050565b600067ffffffffffffffff8211156107b457600080fd5b601f19601f8301169050602081019050919050565b600067ffffffffffffffff8211156107e057600080fd5b601f19601f8301169050602081019050919050565b600081519050919050565b600073ffffffffffffffffffffffffffffffffffffffff82169050919050565b6000819050919050565b600061083582610800565b9050919050565b6000819050919050565b82818337600083830152505050565b60005b83811015610873578082015181840152602081019050610858565b83811115610882576000848401525b50505050565b6000601f19601f830116905091905056fea265627a7a7230582082697f301710333614aba016cb4a7721afcaea625c9b163f0ff5611b3dc95cfe6c6578706572696d656e74616cf50037",
  "source": "// SPDX-License-Identifier: MIT\r\npragma solidity >=0.4.22 <0.9.0;\r\n\r\npragma experimental ABIEncoderV2;\r\n\r\ncontract EyeReportContract {\r\n    struct EyeReport {\r\n        string name;\r\n        uint256 age;\r\n        string gender;\r\n        string[] details;\r\n        string[] prescription;\r\n    }\r\n\r\n    mapping(address => EyeReport) public eyeReports;\r\n\r\n    function createReport(\r\n        string memory _name,\r\n        uint256 _age,\r\n        string memory _gender,\r\n        string[] memory _details,\r\n        string[] memory _prescription\r\n    ) public {\r\n        eyeReports[msg.sender] = EyeReport(\r\n            _name,\r\n            _age,\r\n            _gender,\r\n            _details,\r\n            _prescription\r\n        );\r\n    }\r\n}",
  "sourcePath": "D:\\ehmrs2\\contracts\\EyeReportContract.sol",
  "compiler": {
    "name": "solc",
    "version": "0.5.1+commit.c8a2cb62.Emscripten.clang"
  },
  "schemaVersion": "3.4.16",
  "updatedAt": "2024-04-26T21:08:07.554Z",
  "networkType": "ethereum",
  "devdoc": {
    "methods": {}
  },
  "userdoc": {
    "methods": {}
  }
}