{
  "contractName": "PatientRecordContract",
  "abi": [
    {
      "constant": true,
      "inputs": [
        {
          "name": "",
          "type": "uint256"
        }
      ],
      "name": "patients",
      "outputs": [
        {
          "name": "id",
          "type": "uint256"
        },
        {
          "name": "name",
          "type": "string"
        },
        {
          "name": "age",
          "type": "uint256"
        },
        {
          "name": "gender",
          "type": "string"
        },
        {
          "name": "bloodGroup",
          "type": "string"
        },
        {
          "name": "height",
          "type": "string"
        },
        {
          "name": "weight",
          "type": "string"
        },
        {
          "name": "doctorName",
          "type": "string"
        },
        {
          "name": "medicalReport",
          "type": "string"
        }
      ],
      "payable": false,
      "stateMutability": "view",
      "type": "function"
    },
    {
      "constant": false,
      "inputs": [
        {
          "name": "_name",
          "type": "string"
        },
        {
          "name": "_age",
          "type": "uint256"
        },
        {
          "name": "_gender",
          "type": "string"
        },
        {
          "name": "_bloodGroup",
          "type": "string"
        },
        {
          "name": "_height",
          "type": "string"
        },
        {
          "name": "_weight",
          "type": "string"
        },
        {
          "name": "_doctorName",
          "type": "string"
        },
        {
          "name": "_medicalReport",
          "type": "string"
        }
      ],
      "name": "addPatient",
      "outputs": [],
      "payable": false,
      "stateMutability": "nonpayable",
      "type": "function"
    },
    {
      "constant": true,
      "inputs": [],
      "name": "getPatientCount",
      "outputs": [
        {
          "name": "",
          "type": "uint256"
        }
      ],
      "payable": false,
      "stateMutability": "view",
      "type": "function"
    },
    {
      "constant": true,
      "inputs": [
        {
          "name": "_index",
          "type": "uint256"
        }
      ],
      "name": "getPatient",
      "outputs": [
        {
          "name": "id",
          "type": "uint256"
        },
        {
          "name": "name",
          "type": "string"
        },
        {
          "name": "age",
          "type": "uint256"
        },
        {
          "name": "gender",
          "type": "string"
        },
        {
          "name": "bloodGroup",
          "type": "string"
        },
        {
          "name": "height",
          "type": "string"
        },
        {
          "name": "weight",
          "type": "string"
        },
        {
          "name": "doctorName",
          "type": "string"
        },
        {
          "name": "medicalReport",
          "type": "string"
        }
      ],
      "payable": false,
      "stateMutability": "view",
      "type": "function"
    }
  ],
  "bytecode": "0x608060405234801561001057600080fd5b506111a0806100206000396000f3fe60806040526004361061005c576000357c0100000000000000000000000000000000000000000000000000000000900480637d3a67961461006157806393119a83146100a6578063c190665b146100eb578063e79ba39914610116575b600080fd5b34801561006d57600080fd5b5061008860048036036100839190810190610e55565b61013f565b60405161009d99989796959493929190610f14565b60405180910390f35b3480156100b257600080fd5b506100cd60048036036100c89190810190610e55565b6105f8565b6040516100e299989796959493929190610fd2565b60405180910390f35b3480156100f757600080fd5b50610100610a7d565b60405161010d9190610ef9565b60405180910390f35b34801561012257600080fd5b5061013d60048036036101389190810190610cfb565b610a89565b005b6000606060006060806060806060806000808b81548110151561015e57fe5b906000526020600020906009020190508060000154816001018260020154836003018460040185600501866006018760070188600801878054600181600116156101000203166002900480601f0160208091040260200160405190810160405280929190818152602001828054600181600116156101000203166002900480156102295780601f106101fe57610100808354040283529160200191610229565b820191906000526020600020905b81548152906001019060200180831161020c57829003601f168201915b50505050509750858054600181600116156101000203166002900480601f0160208091040260200160405190810160405280929190818152602001828054600181600116156101000203166002900480156102c55780601f1061029a576101008083540402835291602001916102c5565b820191906000526020600020905b8154815290600101906020018083116102a857829003601f168201915b50505050509550848054600181600116156101000203166002900480601f0160208091040260200160405190810160405280929190818152602001828054600181600116156101000203166002900480156103615780601f1061033657610100808354040283529160200191610361565b820191906000526020600020905b81548152906001019060200180831161034457829003601f168201915b50505050509450838054600181600116156101000203166002900480601f0160208091040260200160405190810160405280929190818152602001828054600181600116156101000203166002900480156103fd5780601f106103d2576101008083540402835291602001916103fd565b820191906000526020600020905b8154815290600101906020018083116103e057829003601f168201915b50505050509350828054600181600116156101000203166002900480601f0160208091040260200160405190810160405280929190818152602001828054600181600116156101000203166002900480156104995780601f1061046e57610100808354040283529160200191610499565b820191906000526020600020905b81548152906001019060200180831161047c57829003601f168201915b50505050509250818054600181600116156101000203166002900480601f0160208091040260200160405190810160405280929190818152602001828054600181600116156101000203166002900480156105355780601f1061050a57610100808354040283529160200191610535565b820191906000526020600020905b81548152906001019060200180831161051857829003601f168201915b50505050509150808054600181600116156101000203166002900480601f0160208091040260200160405190810160405280929190818152602001828054600181600116156101000203166002900480156105d15780601f106105a6576101008083540402835291602001916105d1565b820191906000526020600020905b8154815290600101906020018083116105b457829003601f168201915b50505050509050995099509950995099509950995099509950509193959799909294969850565b60008181548110151561060757fe5b9060005260206000209060090201600091509050806000015490806001018054600181600116156101000203166002900480601f0160208091040260200160405190810160405280929190818152602001828054600181600116156101000203166002900480156106b95780601f1061068e576101008083540402835291602001916106b9565b820191906000526020600020905b81548152906001019060200180831161069c57829003601f168201915b505050505090806002015490806003018054600181600116156101000203166002900480601f01602080910402602001604051908101604052809291908181526020018280546001816001161561010002031660029004801561075d5780601f106107325761010080835404028352916020019161075d565b820191906000526020600020905b81548152906001019060200180831161074057829003601f168201915b505050505090806004018054600181600116156101000203166002900480601f0160208091040260200160405190810160405280929190818152602001828054600181600116156101000203166002900480156107fb5780601f106107d0576101008083540402835291602001916107fb565b820191906000526020600020905b8154815290600101906020018083116107de57829003601f168201915b505050505090806005018054600181600116156101000203166002900480601f0160208091040260200160405190810160405280929190818152602001828054600181600116156101000203166002900480156108995780601f1061086e57610100808354040283529160200191610899565b820191906000526020600020905b81548152906001019060200180831161087c57829003601f168201915b505050505090806006018054600181600116156101000203166002900480601f0160208091040260200160405190810160405280929190818152602001828054600181600116156101000203166002900480156109375780601f1061090c57610100808354040283529160200191610937565b820191906000526020600020905b81548152906001019060200180831161091a57829003601f168201915b505050505090806007018054600181600116156101000203166002900480601f0160208091040260200160405190810160405280929190818152602001828054600181600116156101000203166002900480156109d55780601f106109aa576101008083540402835291602001916109d5565b820191906000526020600020905b8154815290600101906020018083116109b857829003601f168201915b505050505090806008018054600181600116156101000203166002900480601f016020809104026020016040519081016040528092919081815260200182805460018160011615610100020316600290048015610a735780601f10610a4857610100808354040283529160200191610a73565b820191906000526020600020905b815481529060010190602001808311610a5657829003601f168201915b5050505050905089565b60008080549050905090565b60006101206040519081016040528060016000805490500181526020018a81526020018981526020018881526020018781526020018681526020018581526020018481526020018381525090806001815401808255809150509060018203906000526020600020906009020160009091929091909150600082015181600001556020820151816001019080519060200190610b25929190610bec565b50604082015181600201556060820151816003019080519060200190610b4c929190610bec565b506080820151816004019080519060200190610b69929190610bec565b5060a0820151816005019080519060200190610b86929190610bec565b5060c0820151816006019080519060200190610ba3929190610bec565b5060e0820151816007019080519060200190610bc0929190610bec565b50610100820151816008019080519060200190610bde929190610bec565b505050505050505050505050565b828054600181600116156101000203166002900490600052602060002090601f016020900481019282601f10610c2d57805160ff1916838001178555610c5b565b82800160010185558215610c5b579182015b82811115610c5a578251825591602001919060010190610c3f565b5b509050610c689190610c6c565b5090565b610c8e91905b80821115610c8a576000816000905550600101610c72565b5090565b90565b600082601f8301121515610ca457600080fd5b8135610cb7610cb2826110bd565b611090565b91508082526020830160208301858383011115610cd357600080fd5b610cde838284611113565b50505092915050565b6000610cf38235611109565b905092915050565b600080600080600080600080610100898b031215610d1857600080fd5b600089013567ffffffffffffffff811115610d3257600080fd5b610d3e8b828c01610c91565b9850506020610d4f8b828c01610ce7565b975050604089013567ffffffffffffffff811115610d6c57600080fd5b610d788b828c01610c91565b965050606089013567ffffffffffffffff811115610d9557600080fd5b610da18b828c01610c91565b955050608089013567ffffffffffffffff811115610dbe57600080fd5b610dca8b828c01610c91565b94505060a089013567ffffffffffffffff811115610de757600080fd5b610df38b828c01610c91565b93505060c089013567ffffffffffffffff811115610e1057600080fd5b610e1c8b828c01610c91565b92505060e089013567ffffffffffffffff811115610e3957600080fd5b610e458b828c01610c91565b9150509295985092959890939650565b600060208284031215610e6757600080fd5b6000610e7584828501610ce7565b91505092915050565b6000610e89826110f4565b808452610e9d816020860160208601611122565b610ea681611155565b602085010191505092915050565b6000610ebf826110e9565b808452610ed3816020860160208601611122565b610edc81611155565b602085010191505092915050565b610ef3816110ff565b82525050565b6000602082019050610f0e6000830184610eea565b92915050565b600061012082019050610f2a600083018c610eea565b8181036020830152610f3c818b610e7e565b9050610f4b604083018a610eea565b8181036060830152610f5d8189610e7e565b90508181036080830152610f718188610e7e565b905081810360a0830152610f858187610e7e565b905081810360c0830152610f998186610e7e565b905081810360e0830152610fad8185610e7e565b9050818103610100830152610fc28184610e7e565b90509a9950505050505050505050565b600061012082019050610fe8600083018c610eea565b8181036020830152610ffa818b610eb4565b9050611009604083018a610eea565b818103606083015261101b8189610eb4565b9050818103608083015261102f8188610eb4565b905081810360a08301526110438187610eb4565b905081810360c08301526110578186610eb4565b905081810360e083015261106b8185610eb4565b90508181036101008301526110808184610eb4565b90509a9950505050505050505050565b6000604051905081810181811067ffffffffffffffff821117156110b357600080fd5b8060405250919050565b600067ffffffffffffffff8211156110d457600080fd5b601f19601f8301169050602081019050919050565b600081519050919050565b600081519050919050565b6000819050919050565b6000819050919050565b82818337600083830152505050565b60005b83811015611140578082015181840152602081019050611125565b8381111561114f576000848401525b50505050565b6000601f19601f830116905091905056fea265627a7a723058203547e981a1ac9f9498b31164a4363bec1cd9348e93528b3d1c9f455fab949d6a6c6578706572696d656e74616cf50037",
  "source": "// SPDX-License-Identifier: MIT\r\npragma solidity >=0.4.22 <0.9.0;\r\n\r\npragma experimental ABIEncoderV2;\r\n\r\ncontract PatientRecordContract {\r\n    struct Patient {\r\n        uint id;\r\n        string name;\r\n        uint age;\r\n        string gender;\r\n        string bloodGroup;\r\n        string height;\r\n        string weight;\r\n        string doctorName;\r\n        string medicalReport;\r\n    }\r\n\r\n    Patient[] public patients;\r\n\r\n    function addPatient(\r\n        string memory _name,\r\n        uint _age,\r\n        string memory _gender,\r\n        string memory _bloodGroup,\r\n        string memory _height,\r\n        string memory _weight,\r\n        string memory _doctorName,\r\n        string memory _medicalReport\r\n    ) public {\r\n        patients.push(Patient({\r\n            id: patients.length + 1,\r\n            name: _name,\r\n            age: _age,\r\n            gender: _gender,\r\n            bloodGroup: _bloodGroup,\r\n            height: _height,\r\n            weight: _weight,\r\n            doctorName: _doctorName,\r\n            medicalReport: _medicalReport\r\n        }));\r\n    }\r\n\r\n    function getPatientCount() public view returns (uint) {\r\n        return patients.length;\r\n    }\r\n\r\n    function getPatient(uint _index) public view returns (\r\n        uint id,\r\n        string memory name,\r\n        uint age,\r\n        string memory gender,\r\n        string memory bloodGroup,\r\n        string memory height,\r\n        string memory weight,\r\n        string memory doctorName,\r\n        string memory medicalReport\r\n    ) {\r\n        Patient storage patient = patients[_index];\r\n        return (\r\n            patient.id,\r\n            patient.name,\r\n            patient.age,\r\n            patient.gender,\r\n            patient.bloodGroup,\r\n            patient.height,\r\n            patient.weight,\r\n            patient.doctorName,\r\n            patient.medicalReport\r\n        );\r\n    }\r\n}\r\n",
  "sourcePath": "D:\\ehmrs2\\contracts\\PatientRecordContract.sol",
  "compiler": {
    "name": "solc",
    "version": "0.5.1+commit.c8a2cb62.Emscripten.clang"
  },
  "schemaVersion": "3.4.16",
  "updatedAt": "2024-04-26T21:08:07.536Z",
  "networkType": "ethereum",
  "devdoc": {
    "methods": {}
  },
  "userdoc": {
    "methods": {}
  }
}